{
  "contractName": "Employer",
  "abi": [
    {
      "constant": true,
      "inputs": [],
      "name": "owner",
      "outputs": [
        {
          "name": "",
          "type": "address"
        }
      ],
      "payable": false,
      "stateMutability": "view",
      "type": "function"
    },
    {
      "constant": true,
      "inputs": [
        {
          "name": "",
          "type": "uint256"
        }
      ],
      "name": "addresses",
      "outputs": [
        {
          "name": "",
          "type": "address"
        }
      ],
      "payable": false,
      "stateMutability": "view",
      "type": "function"
    },
    {
      "inputs": [],
      "payable": false,
      "stateMutability": "nonpayable",
      "type": "constructor"
    },
    {
      "constant": false,
      "inputs": [
        {
          "name": "_name",
          "type": "bytes32"
        }
      ],
      "name": "register",
      "outputs": [],
      "payable": false,
      "stateMutability": "nonpayable",
      "type": "function"
    },
    {
      "constant": true,
      "inputs": [],
      "name": "getAllEmployers",
      "outputs": [
        {
          "name": "",
          "type": "bytes32[]"
        },
        {
          "name": "",
          "type": "address[]"
        }
      ],
      "payable": false,
      "stateMutability": "view",
      "type": "function"
    }
  ],
  "bytecode": "0x608060405234801561001057600080fd5b5033600260006101000a81548173ffffffffffffffffffffffffffffffffffffffff021916908373ffffffffffffffffffffffffffffffffffffffff160217905550600060038190555061051c806100696000396000f3fe608060405234801561001057600080fd5b506004361061004c5760003560e01c806314c671d6146100515780638da5cb5b146100f8578063e1fa8e8414610142578063edf26d9b14610170575b600080fd5b6100596101de565b604051808060200180602001838103835285818151815260200191508051906020019060200280838360005b838110156100a0578082015181840152602081019050610085565b50505050905001838103825284818151815260200191508051906020019060200280838360005b838110156100e25780820151818401526020810190506100c7565b5050505090500194505050505060405180910390f35b61010061038c565b604051808273ffffffffffffffffffffffffffffffffffffffff1673ffffffffffffffffffffffffffffffffffffffff16815260200191505060405180910390f35b61016e6004803603602081101561015857600080fd5b81019080803590602001909291905050506103b2565b005b61019c6004803603602081101561018657600080fd5b81019080803590602001909291905050506104ab565b604051808273ffffffffffffffffffffffffffffffffffffffff1673ffffffffffffffffffffffffffffffffffffffff16815260200191505060405180910390f35b60608060606001805490506040519080825280602002602001820160405280156102175781602001602082028038833980820191505090505b50905060606001805490506040519080825280602002602001820160405280156102505781602001602082028038833980820191505090505b50905060008090505b60018054905081101561037f576000806001838154811061027657fe5b9060005260206000200160009054906101000a900473ffffffffffffffffffffffffffffffffffffffff1673ffffffffffffffffffffffffffffffffffffffff1673ffffffffffffffffffffffffffffffffffffffff168152602001908152602001600020548382815181106102e857fe5b6020026020010181815250506001818154811061030157fe5b9060005260206000200160009054906101000a900473ffffffffffffffffffffffffffffffffffffffff1682828151811061033857fe5b602002602001019073ffffffffffffffffffffffffffffffffffffffff16908173ffffffffffffffffffffffffffffffffffffffff16815250508080600101915050610259565b5081819350935050509091565b600260009054906101000a900473ffffffffffffffffffffffffffffffffffffffff1681565b6000801b6000803373ffffffffffffffffffffffffffffffffffffffff1673ffffffffffffffffffffffffffffffffffffffff16815260200190815260200160002054146103ff57600080fd5b60013390806001815401808255809150509060018203906000526020600020016000909192909190916101000a81548173ffffffffffffffffffffffffffffffffffffffff021916908373ffffffffffffffffffffffffffffffffffffffff16021790555050806000803373ffffffffffffffffffffffffffffffffffffffff1673ffffffffffffffffffffffffffffffffffffffff1681526020019081526020016000208190555050565b600181815481106104b857fe5b906000526020600020016000915054906101000a900473ffffffffffffffffffffffffffffffffffffffff168156fea265627a7a72305820b1ee2dda8de29d170710c6746a5cd6a63dd9546982e86c5f1db95123bea8609064736f6c63430005090032",
  "source": "pragma solidity = 0.5.9;\n\ncontract Employer {\n\tmapping(address => bytes32) employers;\n\taddress[] public addresses;\n\taddress public owner;\n\tuint private count;\n\tconstructor() public {\n\t\towner = msg.sender;\n\t\tcount = 0;\n\t}\n\n\tfunction register(bytes32 _name) external {\n\t\trequire(employers[msg.sender] == 0);\n\t\taddresses.push(msg.sender);\n\t\temployers[msg.sender] = _name;\n\t\t\n\t}\n\tfunction getAllEmployers() external view returns (bytes32[] memory,address[] memory) {\n\t\tbytes32[] memory nameResults = new bytes32[](addresses.length);\n\t\taddress[] memory addressResults = new address[](addresses.length);\n\t\tfor(uint i =0;i<addresses.length;i++){\n\t\t\tnameResults[i] = employers[addresses[i]];\n\t\t\taddressResults[i] = addresses[i];\n\t\t}\n\t\treturn (nameResults,addressResults);\n\t}\n\n}",
  "sourcePath": "/Users/syahrul/Desktop/projects/WorldResume/contracts/Employer.sol",
  "compiler": {
    "name": "solc",
    "version": "0.5.9+commit.e560f70d.Emscripten.clang"
  },
  "schemaVersion": "3.0.23",
  "updatedAt": "2020-02-25T12:04:26.180Z",
  "networkType": "ethereum",
  "devdoc": {
    "methods": {}
  },
  "userdoc": {
    "methods": {}
  }
}