{
  "contractName": "Portfolio",
  "abi": [
    {
      "constant": true,
      "inputs": [],
      "name": "name",
      "outputs": [
        {
          "name": "",
          "type": "string"
        }
      ],
      "payable": false,
      "stateMutability": "view",
      "type": "function"
    },
    {
      "constant": true,
      "inputs": [],
      "name": "owner",
      "outputs": [
        {
          "name": "",
          "type": "address"
        }
      ],
      "payable": false,
      "stateMutability": "view",
      "type": "function"
    },
    {
      "constant": true,
      "inputs": [],
      "name": "blurb",
      "outputs": [
        {
          "name": "",
          "type": "string"
        }
      ],
      "payable": false,
      "stateMutability": "view",
      "type": "function"
    },
    {
      "inputs": [
        {
          "name": "_owner",
          "type": "address"
        },
        {
          "name": "_name",
          "type": "string"
        },
        {
          "name": "_blurb",
          "type": "string"
        },
        {
          "name": "_companyNames",
          "type": "bytes32[]"
        },
        {
          "name": "_companyAddress",
          "type": "address[]"
        },
        {
          "name": "_positions",
          "type": "bytes32[]"
        },
        {
          "name": "_startTimes",
          "type": "uint256[]"
        },
        {
          "name": "_endTimes",
          "type": "uint256[]"
        }
      ],
      "payable": false,
      "stateMutability": "nonpayable",
      "type": "constructor"
    },
    {
      "anonymous": false,
      "inputs": [
        {
          "indexed": false,
          "name": "jobId",
          "type": "bytes32"
        }
      ],
      "name": "Verified",
      "type": "event"
    },
    {
      "constant": false,
      "inputs": [],
      "name": "getDetails",
      "outputs": [
        {
          "name": "",
          "type": "string"
        },
        {
          "name": "",
          "type": "string"
        }
      ],
      "payable": false,
      "stateMutability": "nonpayable",
      "type": "function"
    },
    {
      "constant": false,
      "inputs": [
        {
          "name": "_companyName",
          "type": "bytes32"
        },
        {
          "name": "_companyAddress",
          "type": "address"
        },
        {
          "name": "_position",
          "type": "bytes32"
        },
        {
          "name": "_start",
          "type": "uint256"
        },
        {
          "name": "_end",
          "type": "uint256"
        }
      ],
      "name": "addJob",
      "outputs": [],
      "payable": false,
      "stateMutability": "nonpayable",
      "type": "function"
    },
    {
      "constant": true,
      "inputs": [
        {
          "name": "_id",
          "type": "bytes32"
        }
      ],
      "name": "getJobById",
      "outputs": [
        {
          "name": "",
          "type": "bytes32"
        },
        {
          "name": "",
          "type": "address"
        },
        {
          "name": "",
          "type": "bytes32"
        },
        {
          "name": "",
          "type": "uint256"
        },
        {
          "name": "",
          "type": "uint256"
        },
        {
          "name": "",
          "type": "bool"
        },
        {
          "name": "",
          "type": "bytes32"
        }
      ],
      "payable": false,
      "stateMutability": "view",
      "type": "function"
    },
    {
      "constant": true,
      "inputs": [],
      "name": "getAllJobId",
      "outputs": [
        {
          "name": "",
          "type": "bytes32[]"
        }
      ],
      "payable": false,
      "stateMutability": "view",
      "type": "function"
    },
    {
      "constant": false,
      "inputs": [
        {
          "name": "_id",
          "type": "bytes32"
        }
      ],
      "name": "verify",
      "outputs": [],
      "payable": false,
      "stateMutability": "nonpayable",
      "type": "function"
    }
  ],
  "bytecode": "0x60806040523480156200001157600080fd5b50604051620010b2380380620010b283398181016040526101008110156200003857600080fd5b810190808051906020019092919080516401000000008111156200005b57600080fd5b828101905060208101848111156200007257600080fd5b81518560018202830111640100000000821117156200009057600080fd5b50509291906020018051640100000000811115620000ad57600080fd5b82810190506020810184811115620000c457600080fd5b8151856001820283011164010000000082111715620000e257600080fd5b50509291906020018051640100000000811115620000ff57600080fd5b828101905060208101848111156200011657600080fd5b81518560208202830111640100000000821117156200013457600080fd5b505092919060200180516401000000008111156200015157600080fd5b828101905060208101848111156200016857600080fd5b81518560208202830111640100000000821117156200018657600080fd5b50509291906020018051640100000000811115620001a357600080fd5b82810190506020810184811115620001ba57600080fd5b8151856020820283011164010000000082111715620001d857600080fd5b50509291906020018051640100000000811115620001f557600080fd5b828101905060208101848111156200020c57600080fd5b81518560208202830111640100000000821117156200022a57600080fd5b505092919060200180516401000000008111156200024757600080fd5b828101905060208101848111156200025e57600080fd5b81518560208202830111640100000000821117156200027c57600080fd5b50509291905050506000600181905550876000806101000a81548173ffffffffffffffffffffffffffffffffffffffff021916908373ffffffffffffffffffffffffffffffffffffffff1602179055508660049080519060200190620002e492919062000527565b508560059080519060200190620002fd92919062000527565b5060008090505b85518110156200039557620003878682815181106200031f57fe5b60200260200101518683815181106200033457fe5b60200260200101518684815181106200034957fe5b60200260200101518685815181106200035e57fe5b60200260200101518686815181106200037357fe5b6020026020010151620003a460201b60201c565b808060010191505062000304565b505050505050505050620005d6565b60008584848460015460405160200180868152602001858152602001848152602001838152602001828152602001955050505050506040516020818303038152906040528051906020012090506002819080600181540180825580915050906001820390600052602060002001600090919290919091505550600160008154809291906001019190505550856003600083815260200190815260200160002060000181905550846003600083815260200190815260200160002060010160006101000a81548173ffffffffffffffffffffffffffffffffffffffff021916908373ffffffffffffffffffffffffffffffffffffffff16021790555083600360008381526020019081526020016000206002018190555082600360008381526020019081526020016000206003018190555081600360008381526020019081526020016000206004018190555060006003600083815260200190815260200160002060050160006101000a81548160ff021916908315150217905550505050505050565b828054600181600116156101000203166002900490600052602060002090601f016020900481019282601f106200056a57805160ff19168380011785556200059b565b828001600101855582156200059b579182015b828111156200059a5782518255916020019190600101906200057d565b5b509050620005aa9190620005ae565b5090565b620005d391905b80821115620005cf576000816000905550600101620005b5565b5090565b90565b610acc80620005e66000396000f3fe608060405234801561001057600080fd5b50600436106100885760003560e01c80638da5cb5b1161005b5780638da5cb5b14610209578063c574d58814610253578063d99aaed4146102ef578063fbbf93a01461037257610088565b8063015e8a271461008d57806306fdde03146100ec57806375e366161461016f5780637f5efee71461019d575b600080fd5b610095610461565b6040518080602001828103825283818151815260200191508051906020019060200280838360005b838110156100d85780820151818401526020810190506100bd565b505050509050019250505060405180910390f35b6100f46104b9565b6040518080602001828103825283818151815260200191508051906020019080838360005b83811015610134578082015181840152602081019050610119565b50505050905090810190601f1680156101615780820380516001836020036101000a031916815260200191505b509250505060405180910390f35b61019b6004803603602081101561018557600080fd5b8101908080359060200190929190505050610557565b005b610207600480360360a08110156101b357600080fd5b8101908080359060200190929190803573ffffffffffffffffffffffffffffffffffffffff16906020019092919080359060200190929190803590602001909291908035906020019092919050505061062e565b005b6102116107b1565b604051808273ffffffffffffffffffffffffffffffffffffffff1673ffffffffffffffffffffffffffffffffffffffff16815260200191505060405180910390f35b61027f6004803603602081101561026957600080fd5b81019080803590602001909291905050506107d6565b604051808881526020018773ffffffffffffffffffffffffffffffffffffffff1673ffffffffffffffffffffffffffffffffffffffff1681526020018681526020018581526020018481526020018315151515815260200182815260200197505050505050505060405180910390f35b6102f76108b2565b6040518080602001828103825283818151815260200191508051906020019080838360005b8381101561033757808201518184015260208101905061031c565b50505050905090810190601f1680156103645780820380516001836020036101000a031916815260200191505b509250505060405180910390f35b61037a610950565b604051808060200180602001838103835285818151815260200191508051906020019080838360005b838110156103be5780820151818401526020810190506103a3565b50505050905090810190601f1680156103eb5780820380516001836020036101000a031916815260200191505b50838103825284818151815260200191508051906020019080838360005b83811015610424578082015181840152602081019050610409565b50505050905090810190601f1680156104515780820380516001836020036101000a031916815260200191505b5094505050505060405180910390f35b606060028054806020026020016040519081016040528092919081815260200182805480156104af57602002820191906000526020600020905b81548152602001906001019080831161049b575b5050505050905090565b60048054600181600116156101000203166002900480601f01602080910402602001604051908101604052809291908181526020018280546001816001161561010002031660029004801561054f5780601f106105245761010080835404028352916020019161054f565b820191906000526020600020905b81548152906001019060200180831161053257829003601f168201915b505050505081565b3373ffffffffffffffffffffffffffffffffffffffff166003600083815260200190815260200160002060010160009054906101000a900473ffffffffffffffffffffffffffffffffffffffff1673ffffffffffffffffffffffffffffffffffffffff16146105c557600080fd5b60016003600083815260200190815260200160002060050160006101000a81548160ff0219169083151502179055507ffd80962e9540d35b7e1c5b2289980b16c1b92208bc2a42634e3290ad70fc3b74816040518082815260200191505060405180910390a150565b60008584848460015460405160200180868152602001858152602001848152602001838152602001828152602001955050505050506040516020818303038152906040528051906020012090506002819080600181540180825580915050906001820390600052602060002001600090919290919091505550600160008154809291906001019190505550856003600083815260200190815260200160002060000181905550846003600083815260200190815260200160002060010160006101000a81548173ffffffffffffffffffffffffffffffffffffffff021916908373ffffffffffffffffffffffffffffffffffffffff16021790555083600360008381526020019081526020016000206002018190555082600360008381526020019081526020016000206003018190555081600360008381526020019081526020016000206004018190555060006003600083815260200190815260200160002060050160006101000a81548160ff021916908315150217905550505050505050565b6000809054906101000a900473ffffffffffffffffffffffffffffffffffffffff1681565b60008060008060008060006003600089815260200190815260200160002060000154600360008a815260200190815260200160002060010160009054906101000a900473ffffffffffffffffffffffffffffffffffffffff16600360008b815260200190815260200160002060020154600360008c815260200190815260200160002060030154600360008d815260200190815260200160002060040154600360008e815260200190815260200160002060050160009054906101000a900460ff168d9650965096509650965096509650919395979092949650565b60058054600181600116156101000203166002900480601f0160208091040260200160405190810160405280929190818152602001828054600181600116156101000203166002900480156109485780601f1061091d57610100808354040283529160200191610948565b820191906000526020600020905b81548152906001019060200180831161092b57829003601f168201915b505050505081565b60608060046005818054600181600116156101000203166002900480601f0160208091040260200160405190810160405280929190818152602001828054600181600116156101000203166002900480156109ec5780601f106109c1576101008083540402835291602001916109ec565b820191906000526020600020905b8154815290600101906020018083116109cf57829003601f168201915b50505050509150808054600181600116156101000203166002900480601f016020809104026020016040519081016040528092919081815260200182805460018160011615610100020316600290048015610a885780601f10610a5d57610100808354040283529160200191610a88565b820191906000526020600020905b815481529060010190602001808311610a6b57829003601f168201915b5050505050905091509150909156fea265627a7a72305820f5c8d53662efd8b9b4815e494b1d273df071b329f5fc0feff1093d189d54a69c64736f6c63430005090032",
  "source": "pragma solidity = 0.5.9;\n\ncontract Portfolio {\n\taddress public owner;\n\tstruct job {\n\t\tbytes32 companyName;\n\t\taddress companyAddress;\n\t\tbytes32 position;\n\t\tuint start;\n\t\tuint end;\n\t\tbool verified;\n\t}\n\tevent Verified (\n\t\tbytes32 jobId\n\t);\n\tuint256 private count;\n\tbytes32[] private jobIDs;\n\tmapping(bytes32 => job) jobMapping;\n\t\n\tstring public name;\n\tstring public blurb;\n\t\n\tconstructor(address _owner,\n        \t    string memory _name,\n        \t    string memory _blurb,\n        \t    bytes32[] memory _companyNames,\n        \t    address[] memory _companyAddress,\n        \t    bytes32[] memory _positions,\n        \t    uint[] memory _startTimes,\n        \t    uint[] memory _endTimes) public {\n\t            count = 0;\n\t\t        owner = _owner;\n\t\t        name =_name;\n\t\t        blurb =_blurb;\n\t\t        for(uint i=0;i<_companyNames.length;i++){\n                    addJob(_companyNames[i],_companyAddress[i],_positions[i],_startTimes[i],_endTimes[i]);\n\t\t        }\n\t\t        \n\t}\n\t\n\tfunction getDetails() external returns(string memory, string memory) {\n\t\treturn(name,blurb);\n\t}\n\n\tfunction addJob(bytes32 _companyName,address _companyAddress,bytes32 _position,uint _start,uint _end) public {\n\t\tbytes32 id = keccak256(abi.encodePacked(_companyName,_position,_start,_end,count));\n\t\tjobIDs.push(id);\n\t\tcount++;\n\t\tjobMapping[id].companyName = _companyName;\n\t\tjobMapping[id].companyAddress = _companyAddress;\n\t\tjobMapping[id].position = _position;\n\t\tjobMapping[id].start = _start;\n\t\tjobMapping[id].end = _end;\n\t\tjobMapping[id].verified = false;\n\t}\n\tfunction getJobById(bytes32 _id) external view returns(bytes32,address,bytes32,uint,uint,bool,bytes32) {\n\t\treturn(jobMapping[_id].companyName,jobMapping[_id].companyAddress,jobMapping[_id].position,jobMapping[_id].start,jobMapping[_id].end,jobMapping[_id].verified,_id);\n\t}\n\tfunction getAllJobId() external view returns (bytes32[] memory) {\n\t\treturn jobIDs;\n\t}\n\tfunction verify(bytes32 _id) external {\n\t\t//only the company can send\n\t\trequire(jobMapping[_id].companyAddress == msg.sender);\n\t    jobMapping[_id].verified = true;\n\t    emit Verified(_id);\n\t} \n\n}\n\ncontract PortfolioFactory {\n\tmapping (address => address) ownerToPortFolio;\n\n\tconstructor() public {\n\n\t}\n\t\n\tfunction createPortfolio(\n\t    address _owner,\n\t    string memory _name,\n\t    string memory _blurb,\n\t    bytes32[] memory _companyNames,\n\t    address[] memory _companyAddress,\n\t    bytes32[] memory _positions,\n\t    uint[] memory _startTimes,\n\t    uint[] memory _endTimes) public {\n\t\tPortfolio p = new Portfolio(_owner,_name,_blurb,_companyNames,_companyAddress,_positions,_startTimes,_endTimes);\n\t\townerToPortFolio[_owner] = address(p);\n\t}\n\tfunction getPortfolioAddress() public view returns (address) {\n\t\treturn ownerToPortFolio[tx.origin];\n\t}\n\tfunction addJob(address _owner, bytes32 _companyName, address _companyAddress,bytes32 _position,uint _start,uint _end) external {\n\t\tPortfolio p = Portfolio(ownerToPortFolio[_owner]);\n\t\tp.addJob(_companyName,_companyAddress,_position,_start,_end);\n\t}\n\tfunction getAllJobId(address _owner) external view returns (bytes32[] memory) {\n\t\tPortfolio p = Portfolio(ownerToPortFolio[_owner]);\n\t\treturn p.getAllJobId();\n\t}\n\tfunction getJobById(address _owner,bytes32 _id) external view returns(bytes32,address,bytes32,uint,uint,bool,bytes32) {\n\t\tPortfolio p = Portfolio(ownerToPortFolio[_owner]);\n\t\treturn p.getJobById(_id);\n\t}\n\tfunction  getDetails(address _owner) external returns(string memory, string memory) {\n\t\tPortfolio p = Portfolio(ownerToPortFolio[_owner]);\n\t\treturn p.getDetails();\n\t}\n\n}",
  "sourcePath": "/Users/syahrul/Desktop/projects/WorldResume/contracts/PortfolioFactory.sol",
  "compiler": {
    "name": "solc",
    "version": "0.5.9+commit.e560f70d.Emscripten.clang"
  },
  "schemaVersion": "3.0.23",
  "updatedAt": "2020-02-25T11:54:35.277Z",
  "devdoc": {
    "methods": {}
  },
  "userdoc": {
    "methods": {}
  }
}