{
  "contractName": "PortfolioTest",
  "abi": [
    {
      "inputs": [
        {
          "name": "_name",
          "type": "string"
        },
        {
          "name": "_blurb",
          "type": "bytes32"
        }
      ],
      "payable": false,
      "stateMutability": "nonpayable",
      "type": "constructor"
    },
    {
      "constant": true,
      "inputs": [],
      "name": "getName",
      "outputs": [
        {
          "name": "",
          "type": "string"
        }
      ],
      "payable": false,
      "stateMutability": "view",
      "type": "function"
    },
    {
      "constant": true,
      "inputs": [],
      "name": "getBlurb",
      "outputs": [
        {
          "name": "",
          "type": "bytes32"
        }
      ],
      "payable": false,
      "stateMutability": "view",
      "type": "function"
    }
  ],
  "bytecode": "0x608060405234801561001057600080fd5b5060405161036a38038061036a8339818101604052604081101561003357600080fd5b81019080805164010000000081111561004b57600080fd5b8281019050602081018481111561006157600080fd5b815185600182028301116401000000008211171561007e57600080fd5b50509291906020018051906020019092919050505033600260006101000a81548173ffffffffffffffffffffffffffffffffffffffff021916908373ffffffffffffffffffffffffffffffffffffffff16021790555081600090805190602001906100ea9291906100f9565b5080600181905550505061019e565b828054600181600116156101000203166002900490600052602060002090601f016020900481019282601f1061013a57805160ff1916838001178555610168565b82800160010185558215610168579182015b8281111561016757825182559160200191906001019061014c565b5b5090506101759190610179565b5090565b61019b91905b8082111561019757600081600090555060010161017f565b5090565b90565b6101bd806101ad6000396000f3fe608060405234801561001057600080fd5b50600436106100365760003560e01c80630f62f12c1461003b57806317d7de7c14610059575b600080fd5b6100436100dc565b6040518082815260200191505060405180910390f35b6100616100e6565b6040518080602001828103825283818151815260200191508051906020019080838360005b838110156100a1578082015181840152602081019050610086565b50505050905090810190601f1680156100ce5780820380516001836020036101000a031916815260200191505b509250505060405180910390f35b6000600154905090565b606060008054600181600116156101000203166002900480601f01602080910402602001604051908101604052809291908181526020018280546001816001161561010002031660029004801561017e5780601f106101535761010080835404028352916020019161017e565b820191906000526020600020905b81548152906001019060200180831161016157829003601f168201915b505050505090509056fea265627a7a72305820fc3f1bf09240ce611a7dc70890e968970d9b0055b23a3cbd7a0e9cfcd7666c0c64736f6c63430005090032",
  "source": "pragma solidity = 0.5.9;\n\ncontract PortfolioTest {\n\tstring private name;\n\tbytes32 private blurb;\n\taddress private owner;\n\n\tconstructor(string memory _name,bytes32 _blurb) public {\n\t\towner = msg.sender;\n\t\tname = _name;\n\t\tblurb = _blurb;\n\t}\n\n\tmodifier isOwner() {\n\t\trequire(msg.sender == owner);\n\t\t_;\n\t}\n\t\n\t\n\tfunction getName() public view returns(string memory) {\n\t\treturn name;\n\t}\n\tfunction getBlurb() public view returns(bytes32) {\n\t\treturn blurb;\n\t}\n\n\n}",
  "sourcePath": "/Users/syahrul/Desktop/projects/WorldResume/contracts/PortfolioTest.sol",
  "compiler": {
    "name": "solc",
    "version": "0.5.9+commit.e560f70d.Emscripten.clang"
  },
  "schemaVersion": "3.0.23",
  "updatedAt": "2020-02-25T11:54:35.282Z",
  "devdoc": {
    "methods": {}
  },
  "userdoc": {
    "methods": {}
  }
}